{
  "contractName": "Lottery",
  "abi": [
    {
      "inputs": [],
      "stateMutability": "nonpayable",
      "type": "constructor"
    },
    {
      "inputs": [
        {
          "internalType": "uint256",
          "name": "",
          "type": "uint256"
        }
      ],
      "name": "allWinners",
      "outputs": [
        {
          "internalType": "address",
          "name": "",
          "type": "address"
        }
      ],
      "stateMutability": "view",
      "type": "function",
      "constant": true
    },
    {
      "inputs": [],
      "name": "manager",
      "outputs": [
        {
          "internalType": "address",
          "name": "",
          "type": "address"
        }
      ],
      "stateMutability": "view",
      "type": "function",
      "constant": true
    },
    {
      "inputs": [
        {
          "internalType": "uint256",
          "name": "",
          "type": "uint256"
        }
      ],
      "name": "participants",
      "outputs": [
        {
          "internalType": "address payable",
          "name": "",
          "type": "address"
        }
      ],
      "stateMutability": "view",
      "type": "function",
      "constant": true
    },
    {
      "inputs": [],
      "name": "winner",
      "outputs": [
        {
          "internalType": "address payable",
          "name": "",
          "type": "address"
        }
      ],
      "stateMutability": "view",
      "type": "function",
      "constant": true
    },
    {
      "stateMutability": "payable",
      "type": "receive",
      "payable": true
    },
    {
      "inputs": [],
      "name": "transfer",
      "outputs": [],
      "stateMutability": "payable",
      "type": "function",
      "payable": true
    },
    {
      "inputs": [],
      "name": "getBalance",
      "outputs": [
        {
          "internalType": "uint256",
          "name": "",
          "type": "uint256"
        }
      ],
      "stateMutability": "view",
      "type": "function",
      "constant": true
    },
    {
      "inputs": [],
      "name": "totalParticipants",
      "outputs": [
        {
          "internalType": "uint256",
          "name": "",
          "type": "uint256"
        }
      ],
      "stateMutability": "view",
      "type": "function",
      "constant": true
    },
    {
      "inputs": [],
      "name": "random",
      "outputs": [
        {
          "internalType": "uint256",
          "name": "",
          "type": "uint256"
        }
      ],
      "stateMutability": "view",
      "type": "function",
      "constant": true
    },
    {
      "inputs": [],
      "name": "selectWinner",
      "outputs": [],
      "stateMutability": "nonpayable",
      "type": "function"
    }
  ],
  "bytecode": "0x608060405234801561001057600080fd5b50336000806101000a81548173ffffffffffffffffffffffffffffffffffffffff021916908373ffffffffffffffffffffffffffffffffffffffff160217905550610977806100606000396000f3fe60806040526004361061008a5760003560e01c80635ec01e4d116100595780635ec01e4d146101405780638a4068dd1461016b578063a26dbf2614610175578063dbff4e30146101a0578063dfbf53ae146101dd57610091565b806312065fe01461009657806333a99e04146100c157806335c1d349146100d8578063481c6a751461011557610091565b3661009157005b600080fd5b3480156100a257600080fd5b506100ab610208565b6040516100b89190610714565b60405180910390f35b3480156100cd57600080fd5b506100d6610269565b005b3480156100e457600080fd5b506100ff60048036038101906100fa9190610760565b6104cc565b60405161010c91906107ce565b60405180910390f35b34801561012157600080fd5b5061012a61050b565b604051610137919061080a565b60405180910390f35b34801561014c57600080fd5b5061015561052f565b6040516101629190610714565b60405180910390f35b610173610569565b005b34801561018157600080fd5b5061018a6105e2565b6040516101979190610714565b60405180910390f35b3480156101ac57600080fd5b506101c760048036038101906101c29190610760565b6105ef565b6040516101d4919061080a565b60405180910390f35b3480156101e957600080fd5b506101f261062e565b6040516101ff91906107ce565b60405180910390f35b60008060009054906101000a900473ffffffffffffffffffffffffffffffffffffffff1673ffffffffffffffffffffffffffffffffffffffff163373ffffffffffffffffffffffffffffffffffffffff161461026357600080fd5b47905090565b60008054906101000a900473ffffffffffffffffffffffffffffffffffffffff1673ffffffffffffffffffffffffffffffffffffffff163373ffffffffffffffffffffffffffffffffffffffff16146102c157600080fd5b6003808054905010156102d357600080fd5b60006102dd61052f565b90506000600380549050826102f29190610854565b90506003818154811061030857610307610885565b5b9060005260206000200160009054906101000a900473ffffffffffffffffffffffffffffffffffffffff16600160006101000a81548173ffffffffffffffffffffffffffffffffffffffff021916908373ffffffffffffffffffffffffffffffffffffffff160217905550600160009054906101000a900473ffffffffffffffffffffffffffffffffffffffff1673ffffffffffffffffffffffffffffffffffffffff166108fc6103b7610208565b9081150290604051600060405180830381858888f193505050501580156103e2573d6000803e3d6000fd5b50600067ffffffffffffffff8111156103fe576103fd6108b4565b5b60405190808252806020026020018201604052801561042c5781602001602082028036833780820191505090505b5060039080519060200190610442929190610654565b506002600160009054906101000a900473ffffffffffffffffffffffffffffffffffffffff169080600181540180825580915050600190039060005260206000200160009091909190916101000a81548173ffffffffffffffffffffffffffffffffffffffff021916908373ffffffffffffffffffffffffffffffffffffffff1602179055505050565b600381815481106104dc57600080fd5b906000526020600020016000915054906101000a900473ffffffffffffffffffffffffffffffffffffffff1681565b60008054906101000a900473ffffffffffffffffffffffffffffffffffffffff1681565b6000444260038054905060405160200161054b93929190610904565b6040516020818303038152906040528051906020012060001c905090565b671bc16d674ec80000341461057d57600080fd5b6003339080600181540180825580915050600190039060005260206000200160009091909190916101000a81548173ffffffffffffffffffffffffffffffffffffffff021916908373ffffffffffffffffffffffffffffffffffffffff160217905550565b6000600380549050905090565b600281815481106105ff57600080fd5b906000526020600020016000915054906101000a900473ffffffffffffffffffffffffffffffffffffffff1681565b600160009054906101000a900473ffffffffffffffffffffffffffffffffffffffff1681565b8280548282559060005260206000209081019282156106cd579160200282015b828111156106cc5782518260006101000a81548173ffffffffffffffffffffffffffffffffffffffff021916908373ffffffffffffffffffffffffffffffffffffffff16021790555091602001919060010190610674565b5b5090506106da91906106de565b5090565b5b808211156106f75760008160009055506001016106df565b5090565b6000819050919050565b61070e816106fb565b82525050565b60006020820190506107296000830184610705565b92915050565b600080fd5b61073d816106fb565b811461074857600080fd5b50565b60008135905061075a81610734565b92915050565b6000602082840312156107765761077561072f565b5b60006107848482850161074b565b91505092915050565b600073ffffffffffffffffffffffffffffffffffffffff82169050919050565b60006107b88261078d565b9050919050565b6107c8816107ad565b82525050565b60006020820190506107e360008301846107bf565b92915050565b60006107f48261078d565b9050919050565b610804816107e9565b82525050565b600060208201905061081f60008301846107fb565b92915050565b7f4e487b7100000000000000000000000000000000000000000000000000000000600052601260045260246000fd5b600061085f826106fb565b915061086a836106fb565b92508261087a57610879610825565b5b828206905092915050565b7f4e487b7100000000000000000000000000000000000000000000000000000000600052603260045260246000fd5b7f4e487b7100000000000000000000000000000000000000000000000000000000600052604160045260246000fd5b6000819050919050565b6108fe6108f9826106fb565b6108e3565b82525050565b600061091082866108ed565b60208201915061092082856108ed565b60208201915061093082846108ed565b60208201915081905094935050505056fea2646970667358221220ae97bdfeea7df1f281ad716e980bb39839caa877086dc4865f2578ea486dd9ea64736f6c634300080e0033",
  "immutableReferences": {},
  "source": "// SPDX-License-Identifier: GPL-3.0\r\n\r\npragma solidity >=0.8.14 <=0.9.0;\r\n\r\ncontract Lottery {\r\n    address public manager;\r\n    address payable public winner;\r\n    address[] public allWinners;\r\n    address payable[] public participants;\r\n\r\n    constructor() {\r\n        manager = msg.sender; //global variable\r\n    }\r\n\r\n    receive() external payable {}\r\n\r\n    function transfer() external payable {\r\n        require(msg.value == 2 ether);\r\n        participants.push(payable(msg.sender));\r\n    }\r\n\r\n    function getBalance() public view returns (uint256) {\r\n        require(msg.sender == manager);\r\n        return address(this).balance;\r\n    }\r\n\r\n    function totalParticipants() public view returns (uint256) {\r\n        return participants.length;\r\n    }\r\n\r\n    function random() public view returns (uint256) {\r\n        return\r\n            uint256(\r\n                keccak256(\r\n                    abi.encodePacked(\r\n                        block.difficulty,\r\n                        block.timestamp,\r\n                        participants.length\r\n                    )\r\n                )\r\n            );\r\n    }\r\n\r\n    function selectWinner() public {\r\n        require(msg.sender == manager);\r\n        require(participants.length >= 3);\r\n        uint256 rand = random();\r\n        uint256 index = rand % participants.length;\r\n\r\n        winner = participants[index];\r\n\r\n        winner.transfer(getBalance());\r\n        participants = new address payable[](0);\r\n        allWinners.push(winner);\r\n    }\r\n}\r\n",
  "sourcePath": "E:\\BlockChain\\React+Truffle\\Lottery\\contracts\\Lottery.sol",
  "compiler": {
    "name": "solc",
    "version": "0.8.14+commit.80d49f37.Emscripten.clang"
  },
  "schemaVersion": "3.4.7",
  "updatedAt": "2022-07-20T15:10:06.435Z",
  "networkType": "ethereum",
  "devdoc": {
    "kind": "dev",
    "methods": {},
    "version": 1
  },
  "userdoc": {
    "kind": "user",
    "methods": {},
    "version": 1
  }
}